{
  "contractName": "ClinicalTrial",
  "abi": [
    {
      "anonymous": false,
      "inputs": [
        {
          "indexed": false,
          "internalType": "string",
          "name": "id",
          "type": "string"
        },
        {
          "indexed": false,
          "internalType": "string",
          "name": "title",
          "type": "string"
        },
        {
          "indexed": false,
          "internalType": "string",
          "name": "description",
          "type": "string"
        },
        {
          "indexed": false,
          "internalType": "string",
          "name": "status",
          "type": "string"
        },
        {
          "indexed": false,
          "internalType": "string",
          "name": "sponsor",
          "type": "string"
        },
        {
          "indexed": false,
          "internalType": "uint256",
          "name": "participants",
          "type": "uint256"
        }
      ],
      "name": "TrialCreated",
      "type": "event"
    },
    {
      "anonymous": false,
      "inputs": [
        {
          "indexed": false,
          "internalType": "string",
          "name": "id",
          "type": "string"
        }
      ],
      "name": "TrialDeleted",
      "type": "event"
    },
    {
      "anonymous": false,
      "inputs": [
        {
          "indexed": false,
          "internalType": "string",
          "name": "id",
          "type": "string"
        },
        {
          "indexed": false,
          "internalType": "string",
          "name": "title",
          "type": "string"
        },
        {
          "indexed": false,
          "internalType": "string",
          "name": "description",
          "type": "string"
        },
        {
          "indexed": false,
          "internalType": "string",
          "name": "status",
          "type": "string"
        },
        {
          "indexed": false,
          "internalType": "string",
          "name": "sponsor",
          "type": "string"
        },
        {
          "indexed": false,
          "internalType": "uint256",
          "name": "participants",
          "type": "uint256"
        }
      ],
      "name": "TrialUpdated",
      "type": "event"
    },
    {
      "inputs": [
        {
          "internalType": "string",
          "name": "id",
          "type": "string"
        },
        {
          "internalType": "string",
          "name": "title",
          "type": "string"
        },
        {
          "internalType": "string",
          "name": "description",
          "type": "string"
        },
        {
          "internalType": "string",
          "name": "status",
          "type": "string"
        },
        {
          "internalType": "string",
          "name": "sponsor",
          "type": "string"
        },
        {
          "internalType": "uint256",
          "name": "participants",
          "type": "uint256"
        }
      ],
      "name": "createTrial",
      "outputs": [],
      "stateMutability": "nonpayable",
      "type": "function"
    },
    {
      "inputs": [
        {
          "internalType": "string",
          "name": "id",
          "type": "string"
        }
      ],
      "name": "deleteTrial",
      "outputs": [],
      "stateMutability": "nonpayable",
      "type": "function"
    },
    {
      "inputs": [
        {
          "internalType": "string",
          "name": "id",
          "type": "string"
        }
      ],
      "name": "readTrial",
      "outputs": [
        {
          "internalType": "string",
          "name": "title",
          "type": "string"
        },
        {
          "internalType": "string",
          "name": "description",
          "type": "string"
        },
        {
          "internalType": "string",
          "name": "status",
          "type": "string"
        },
        {
          "internalType": "string",
          "name": "sponsor",
          "type": "string"
        },
        {
          "internalType": "uint256",
          "name": "participants",
          "type": "uint256"
        }
      ],
      "stateMutability": "view",
      "type": "function"
    },
    {
      "inputs": [
        {
          "internalType": "string",
          "name": "id",
          "type": "string"
        },
        {
          "internalType": "string",
          "name": "title",
          "type": "string"
        },
        {
          "internalType": "string",
          "name": "description",
          "type": "string"
        },
        {
          "internalType": "string",
          "name": "status",
          "type": "string"
        },
        {
          "internalType": "string",
          "name": "sponsor",
          "type": "string"
        },
        {
          "internalType": "uint256",
          "name": "participants",
          "type": "uint256"
        }
      ],
      "name": "updateTrial",
      "outputs": [],
      "stateMutability": "nonpayable",
      "type": "function"
    }
  ],
  "bytecode": "0x608060405234801561000f575f80fd5b50610ea08061001d5f395ff3fe608060405234801561000f575f80fd5b506004361061004a575f3560e01c806309f28f8c1461004e57806384917f5d1461006a578063e0600aba14610086578063fc1e5f28146100a2575b5f80fd5b6100686004803603810190610063919061085d565b6100d6565b005b610084600480360381019061007f919061085d565b610191565b005b6100a0600480360381019061009b9190610972565b6102a2565b005b6100bc60048036038101906100b79190610972565b61034d565b6040516100cd959493929190610a42565b60405180910390f35b5f80876040516100e69190610ae9565b90815260200160405180910390209050858160010190816101079190610cf9565b50848160020190816101199190610cf9565b508381600301908161012b9190610cf9565b508281600401908161013d9190610cf9565b508181600501819055507fca60a4fd94f59197d5abce45bb73fc0f77b5688830e000b5abbaa7897322a62887878787878760405161018096959493929190610dc8565b60405180910390a150505050505050565b5f6040518060c00160405280888152602001878152602001868152602001858152602001848152602001838152509050805f886040516101d19190610ae9565b90815260200160405180910390205f820151815f0190816101f29190610cf9565b5060208201518160010190816102089190610cf9565b50604082015181600201908161021e9190610cf9565b5060608201518160030190816102349190610cf9565b50608082015181600401908161024a9190610cf9565b5060a082015181600501559050507f89adeadf8a7d707ed6f61a8880eb932acc0fd9d84d72230ce68a8cc27341af4287878787878760405161029196959493929190610dc8565b60405180910390a150505050505050565b5f816040516102b19190610ae9565b90815260200160405180910390205f8082015f6102ce9190610685565b600182015f6102dd9190610685565b600282015f6102ec9190610685565b600382015f6102fb9190610685565b600482015f61030a9190610685565b600582015f905550507f03e3fc74a823dc8a922e97965c318244328ca5dfb78db6464a66be5161e1dbf4816040516103429190610e4a565b60405180910390a150565b6060806060805f805f876040516103649190610ae9565b90815260200160405180910390206040518060c00160405290815f8201805461038c90610b2c565b80601f01602080910402602001604051908101604052809291908181526020018280546103b890610b2c565b80156104035780601f106103da57610100808354040283529160200191610403565b820191905f5260205f20905b8154815290600101906020018083116103e657829003601f168201915b5050505050815260200160018201805461041c90610b2c565b80601f016020809104026020016040519081016040528092919081815260200182805461044890610b2c565b80156104935780601f1061046a57610100808354040283529160200191610493565b820191905f5260205f20905b81548152906001019060200180831161047657829003601f168201915b505050505081526020016002820180546104ac90610b2c565b80601f01602080910402602001604051908101604052809291908181526020018280546104d890610b2c565b80156105235780601f106104fa57610100808354040283529160200191610523565b820191905f5260205f20905b81548152906001019060200180831161050657829003601f168201915b5050505050815260200160038201805461053c90610b2c565b80601f016020809104026020016040519081016040528092919081815260200182805461056890610b2c565b80156105b35780601f1061058a576101008083540402835291602001916105b3565b820191905f5260205f20905b81548152906001019060200180831161059657829003601f168201915b505050505081526020016004820180546105cc90610b2c565b80601f01602080910402602001604051908101604052809291908181526020018280546105f890610b2c565b80156106435780601f1061061a57610100808354040283529160200191610643565b820191905f5260205f20905b81548152906001019060200180831161062657829003601f168201915b50505050508152602001600582015481525050905080602001518160400151826060015183608001518460a00151955095509550955095505091939590929450565b50805461069190610b2c565b5f825580601f106106a257506106bf565b601f0160209004905f5260205f20908101906106be91906106c2565b5b50565b5b808211156106d9575f815f9055506001016106c3565b5090565b5f604051905090565b5f80fd5b5f80fd5b5f80fd5b5f80fd5b5f601f19601f8301169050919050565b7f4e487b71000000000000000000000000000000000000000000000000000000005f52604160045260245ffd5b61073c826106f6565b810181811067ffffffffffffffff8211171561075b5761075a610706565b5b80604052505050565b5f61076d6106dd565b90506107798282610733565b919050565b5f67ffffffffffffffff82111561079857610797610706565b5b6107a1826106f6565b9050602081019050919050565b828183375f83830152505050565b5f6107ce6107c98461077e565b610764565b9050828152602081018484840111156107ea576107e96106f2565b5b6107f58482856107ae565b509392505050565b5f82601f830112610811576108106106ee565b5b81356108218482602086016107bc565b91505092915050565b5f819050919050565b61083c8161082a565b8114610846575f80fd5b50565b5f8135905061085781610833565b92915050565b5f805f805f8060c08789031215610877576108766106e6565b5b5f87013567ffffffffffffffff811115610894576108936106ea565b5b6108a089828a016107fd565b965050602087013567ffffffffffffffff8111156108c1576108c06106ea565b5b6108cd89828a016107fd565b955050604087013567ffffffffffffffff8111156108ee576108ed6106ea565b5b6108fa89828a016107fd565b945050606087013567ffffffffffffffff81111561091b5761091a6106ea565b5b61092789828a016107fd565b935050608087013567ffffffffffffffff811115610948576109476106ea565b5b61095489828a016107fd565b92505060a061096589828a01610849565b9150509295509295509295565b5f60208284031215610987576109866106e6565b5b5f82013567ffffffffffffffff8111156109a4576109a36106ea565b5b6109b0848285016107fd565b91505092915050565b5f81519050919050565b5f82825260208201905092915050565b5f5b838110156109f05780820151818401526020810190506109d5565b5f8484015250505050565b5f610a05826109b9565b610a0f81856109c3565b9350610a1f8185602086016109d3565b610a28816106f6565b840191505092915050565b610a3c8161082a565b82525050565b5f60a0820190508181035f830152610a5a81886109fb565b90508181036020830152610a6e81876109fb565b90508181036040830152610a8281866109fb565b90508181036060830152610a9681856109fb565b9050610aa56080830184610a33565b9695505050505050565b5f81905092915050565b5f610ac3826109b9565b610acd8185610aaf565b9350610add8185602086016109d3565b80840191505092915050565b5f610af48284610ab9565b915081905092915050565b7f4e487b71000000000000000000000000000000000000000000000000000000005f52602260045260245ffd5b5f6002820490506001821680610b4357607f821691505b602082108103610b5657610b55610aff565b5b50919050565b5f819050815f5260205f209050919050565b5f6020601f8301049050919050565b5f82821b905092915050565b5f60088302610bb87fffffffffffffffffffffffffffffffffffffffffffffffffffffffffffffffff82610b7d565b610bc28683610b7d565b95508019841693508086168417925050509392505050565b5f819050919050565b5f610bfd610bf8610bf38461082a565b610bda565b61082a565b9050919050565b5f819050919050565b610c1683610be3565b610c2a610c2282610c04565b848454610b89565b825550505050565b5f90565b610c3e610c32565b610c49818484610c0d565b505050565b5b81811015610c6c57610c615f82610c36565b600181019050610c4f565b5050565b601f821115610cb157610c8281610b5c565b610c8b84610b6e565b81016020851015610c9a578190505b610cae610ca685610b6e565b830182610c4e565b50505b505050565b5f82821c905092915050565b5f610cd15f1984600802610cb6565b1980831691505092915050565b5f610ce98383610cc2565b9150826002028217905092915050565b610d02826109b9565b67ffffffffffffffff811115610d1b57610d1a610706565b5b610d258254610b2c565b610d30828285610c70565b5f60209050601f831160018114610d61575f8415610d4f578287015190505b610d598582610cde565b865550610dc0565b601f198416610d6f86610b5c565b5f5b82811015610d9657848901518255600182019150602085019450602081019050610d71565b86831015610db35784890151610daf601f891682610cc2565b8355505b6001600288020188555050505b505050505050565b5f60c0820190508181035f830152610de081896109fb565b90508181036020830152610df481886109fb565b90508181036040830152610e0881876109fb565b90508181036060830152610e1c81866109fb565b90508181036080830152610e3081856109fb565b9050610e3f60a0830184610a33565b979650505050505050565b5f6020820190508181035f830152610e6281846109fb565b90509291505056fea26469706673582212203f1aa6b4f44cc33a14246cd6cf89ad74b6318f9689ab2a99a55ef728b1229b7064736f6c63430008150033",
  "immutableReferences": {},
  "source": "// SPDX-License-Identifier: MIT\npragma solidity ^0.8.0;\n\ncontract ClinicalTrial {\n    struct Trial {\n        string id;\n        string title;\n        string description;\n        string status;\n        string sponsor;\n        uint participants;\n    }\n\n    mapping(string => Trial) private trials;\n\n    event TrialCreated(string id, string title, string description, string status, string sponsor, uint participants);\n    event TrialUpdated(string id, string title, string description, string status, string sponsor, uint participants);\n    event TrialDeleted(string id);\n\n    function createTrial(string memory id, string memory title, string memory description, string memory status, string memory sponsor, uint participants) public {\n        Trial memory newTrial = Trial({\n            id: id,\n            title: title,\n            description: description,\n            status: status,\n            sponsor: sponsor,\n            participants: participants\n        });\n\n        trials[id] = newTrial;\n        emit TrialCreated(id, title, description, status, sponsor, participants);\n    }\n\n    function readTrial(string memory id) public view returns (string memory title, string memory description, string memory status, string memory sponsor, uint participants) {\n        Trial memory trial = trials[id];\n        return (trial.title, trial.description, trial.status, trial.sponsor, trial.participants);\n    }\n\n    function updateTrial(string memory id, string memory title, string memory description, string memory status, string memory sponsor, uint participants) public {\n        Trial storage trial = trials[id];\n        trial.title = title;\n        trial.description = description;\n        trial.status = status;\n        trial.sponsor = sponsor;\n        trial.participants = participants;\n\n        emit TrialUpdated(id, title, description, status, sponsor, participants);\n    }\n\n    function deleteTrial(string memory id) public {\n        delete trials[id];\n        emit TrialDeleted(id);\n    }\n}\n",
  "sourcePath": "C:\\clinicaltrials\\eth-contracts\\contracts\\ClinicalTrial.sol",
  "compiler": {
    "name": "solc",
    "version": "0.8.21+commit.d9974bed.Emscripten.clang"
  },
  "schemaVersion": "3.4.16",
  "updatedAt": "2024-06-16T07:17:39.608Z",
  "devdoc": {
    "kind": "dev",
    "methods": {},
    "version": 1
  },
  "userdoc": {
    "kind": "user",
    "methods": {},
    "version": 1
  }
}